{
  "_format": "hh-sol-artifact-1",
  "contractName": "PokemonToken",
  "sourceName": "contracts/PokemonToken.sol",
  "abi": [
    {
      "inputs": [],
      "stateMutability": "nonpayable",
      "type": "constructor"
    },
    {
      "anonymous": false,
      "inputs": [
        {
          "indexed": true,
          "internalType": "address",
          "name": "owner",
          "type": "address"
        },
        {
          "indexed": true,
          "internalType": "address",
          "name": "approved",
          "type": "address"
        },
        {
          "indexed": true,
          "internalType": "uint256",
          "name": "tokenId",
          "type": "uint256"
        }
      ],
      "name": "Approval",
      "type": "event"
    },
    {
      "anonymous": false,
      "inputs": [
        {
          "indexed": true,
          "internalType": "address",
          "name": "owner",
          "type": "address"
        },
        {
          "indexed": true,
          "internalType": "address",
          "name": "operator",
          "type": "address"
        },
        {
          "indexed": false,
          "internalType": "bool",
          "name": "approved",
          "type": "bool"
        }
      ],
      "name": "ApprovalForAll",
      "type": "event"
    },
    {
      "anonymous": false,
      "inputs": [
        {
          "indexed": true,
          "internalType": "address",
          "name": "from",
          "type": "address"
        },
        {
          "indexed": true,
          "internalType": "uint256",
          "name": "itemId",
          "type": "uint256"
        }
      ],
      "name": "TokenCreated",
      "type": "event"
    },
    {
      "anonymous": false,
      "inputs": [
        {
          "indexed": true,
          "internalType": "address",
          "name": "from",
          "type": "address"
        },
        {
          "indexed": true,
          "internalType": "address",
          "name": "to",
          "type": "address"
        },
        {
          "indexed": true,
          "internalType": "uint256",
          "name": "tokenId",
          "type": "uint256"
        }
      ],
      "name": "Transfer",
      "type": "event"
    },
    {
      "inputs": [
        {
          "internalType": "address",
          "name": "to",
          "type": "address"
        },
        {
          "internalType": "uint256",
          "name": "tokenId",
          "type": "uint256"
        }
      ],
      "name": "approve",
      "outputs": [],
      "stateMutability": "nonpayable",
      "type": "function"
    },
    {
      "inputs": [
        {
          "internalType": "address",
          "name": "owner",
          "type": "address"
        }
      ],
      "name": "balanceOf",
      "outputs": [
        {
          "internalType": "uint256",
          "name": "",
          "type": "uint256"
        }
      ],
      "stateMutability": "view",
      "type": "function"
    },
    {
      "inputs": [
        {
          "internalType": "uint256",
          "name": "tokenId",
          "type": "uint256"
        }
      ],
      "name": "getApproved",
      "outputs": [
        {
          "internalType": "address",
          "name": "",
          "type": "address"
        }
      ],
      "stateMutability": "view",
      "type": "function"
    },
    {
      "inputs": [],
      "name": "getUserTokens",
      "outputs": [
        {
          "components": [
            {
              "internalType": "address",
              "name": "userAddress",
              "type": "address"
            },
            {
              "internalType": "string",
              "name": "tokenURI",
              "type": "string"
            }
          ],
          "internalType": "struct PokemonToken.UserToken[]",
          "name": "",
          "type": "tuple[]"
        }
      ],
      "stateMutability": "view",
      "type": "function"
    },
    {
      "inputs": [
        {
          "internalType": "address",
          "name": "owner",
          "type": "address"
        },
        {
          "internalType": "address",
          "name": "operator",
          "type": "address"
        }
      ],
      "name": "isApprovedForAll",
      "outputs": [
        {
          "internalType": "bool",
          "name": "",
          "type": "bool"
        }
      ],
      "stateMutability": "view",
      "type": "function"
    },
    {
      "inputs": [
        {
          "internalType": "string",
          "name": "jsonMetaData",
          "type": "string"
        }
      ],
      "name": "mint",
      "outputs": [],
      "stateMutability": "nonpayable",
      "type": "function"
    },
    {
      "inputs": [],
      "name": "name",
      "outputs": [
        {
          "internalType": "string",
          "name": "",
          "type": "string"
        }
      ],
      "stateMutability": "view",
      "type": "function"
    },
    {
      "inputs": [
        {
          "internalType": "uint256",
          "name": "tokenId",
          "type": "uint256"
        }
      ],
      "name": "ownerOf",
      "outputs": [
        {
          "internalType": "address",
          "name": "",
          "type": "address"
        }
      ],
      "stateMutability": "view",
      "type": "function"
    },
    {
      "inputs": [
        {
          "internalType": "address",
          "name": "from",
          "type": "address"
        },
        {
          "internalType": "address",
          "name": "to",
          "type": "address"
        },
        {
          "internalType": "uint256",
          "name": "tokenId",
          "type": "uint256"
        }
      ],
      "name": "safeTransferFrom",
      "outputs": [],
      "stateMutability": "nonpayable",
      "type": "function"
    },
    {
      "inputs": [
        {
          "internalType": "address",
          "name": "from",
          "type": "address"
        },
        {
          "internalType": "address",
          "name": "to",
          "type": "address"
        },
        {
          "internalType": "uint256",
          "name": "tokenId",
          "type": "uint256"
        },
        {
          "internalType": "bytes",
          "name": "_data",
          "type": "bytes"
        }
      ],
      "name": "safeTransferFrom",
      "outputs": [],
      "stateMutability": "nonpayable",
      "type": "function"
    },
    {
      "inputs": [
        {
          "internalType": "address",
          "name": "operator",
          "type": "address"
        },
        {
          "internalType": "bool",
          "name": "approved",
          "type": "bool"
        }
      ],
      "name": "setApprovalForAll",
      "outputs": [],
      "stateMutability": "nonpayable",
      "type": "function"
    },
    {
      "inputs": [
        {
          "internalType": "bytes4",
          "name": "interfaceId",
          "type": "bytes4"
        }
      ],
      "name": "supportsInterface",
      "outputs": [
        {
          "internalType": "bool",
          "name": "",
          "type": "bool"
        }
      ],
      "stateMutability": "view",
      "type": "function"
    },
    {
      "inputs": [],
      "name": "symbol",
      "outputs": [
        {
          "internalType": "string",
          "name": "",
          "type": "string"
        }
      ],
      "stateMutability": "view",
      "type": "function"
    },
    {
      "inputs": [
        {
          "internalType": "uint256",
          "name": "tokenId",
          "type": "uint256"
        }
      ],
      "name": "tokenURI",
      "outputs": [
        {
          "internalType": "string",
          "name": "",
          "type": "string"
        }
      ],
      "stateMutability": "view",
      "type": "function"
    },
    {
      "inputs": [
        {
          "internalType": "address",
          "name": "from",
          "type": "address"
        },
        {
          "internalType": "address",
          "name": "to",
          "type": "address"
        },
        {
          "internalType": "uint256",
          "name": "tokenId",
          "type": "uint256"
        }
      ],
      "name": "transferFrom",
      "outputs": [],
      "stateMutability": "nonpayable",
      "type": "function"
    }
  ],
  "bytecode": "0x60806040523480156200001157600080fd5b506040518060400160405280600c81526020017f506f6b656d6f6e546f6b656e00000000000000000000000000000000000000008152506040518060400160405280600381526020017f504b540000000000000000000000000000000000000000000000000000000000815250816000908051906020019062000096929190620000b8565b508060019080519060200190620000af929190620000b8565b505050620001cd565b828054620000c69062000168565b90600052602060002090601f016020900481019282620000ea576000855562000136565b82601f106200010557805160ff191683800117855562000136565b8280016001018555821562000136579182015b828111156200013557825182559160200191906001019062000118565b5b50905062000145919062000149565b5090565b5b80821115620001645760008160009055506001016200014a565b5090565b600060028204905060018216806200018157607f821691505b602082108114156200019857620001976200019e565b5b50919050565b7f4e487b7100000000000000000000000000000000000000000000000000000000600052602260045260246000fd5b6131b580620001dd6000396000f3fe608060405234801561001057600080fd5b50600436106100f55760003560e01c806370a0823111610097578063b88d4fde11610066578063b88d4fde14610284578063c87b56dd146102a0578063d85d3d27146102d0578063e985e9c5146102ec576100f5565b806370a08231146101fc5780638a664ebc1461022c57806395d89b411461024a578063a22cb46514610268576100f5565b8063095ea7b3116100d3578063095ea7b31461017857806323b872dd1461019457806342842e0e146101b05780636352211e146101cc576100f5565b806301ffc9a7146100fa57806306fdde031461012a578063081812fc14610148575b600080fd5b610114600480360381019061010f91906120a7565b61031c565b604051610121919061261e565b60405180910390f35b6101326103fe565b60405161013f9190612639565b60405180910390f35b610162600480360381019061015d919061213a565b610490565b60405161016f9190612595565b60405180910390f35b610192600480360381019061018d919061206b565b610515565b005b6101ae60048036038101906101a99190611f65565b61062d565b005b6101ca60048036038101906101c59190611f65565b61068d565b005b6101e660048036038101906101e1919061213a565b6106ad565b6040516101f39190612595565b60405180910390f35b61021660048036038101906102119190611f00565b61075f565b604051610223919061285b565b60405180910390f35b610234610817565b60405161024191906125fc565b60405180910390f35b610252610b58565b60405161025f9190612639565b60405180910390f35b610282600480360381019061027d919061202f565b610bea565b005b61029e60048036038101906102999190611fb4565b610c00565b005b6102ba60048036038101906102b5919061213a565b610c62565b6040516102c79190612639565b60405180910390f35b6102ea60048036038101906102e591906120f9565b610db4565b005b61030660048036038101906103019190611f29565b610ecd565b604051610313919061261e565b60405180910390f35b60007f80ac58cd000000000000000000000000000000000000000000000000000000007bffffffffffffffffffffffffffffffffffffffffffffffffffffffff1916827bffffffffffffffffffffffffffffffffffffffffffffffffffffffff191614806103e757507f5b5e139f000000000000000000000000000000000000000000000000000000007bffffffffffffffffffffffffffffffffffffffffffffffffffffffff1916827bffffffffffffffffffffffffffffffffffffffffffffffffffffffff1916145b806103f757506103f682610f61565b5b9050919050565b60606000805461040d90612afb565b80601f016020809104026020016040519081016040528092919081815260200182805461043990612afb565b80156104865780601f1061045b57610100808354040283529160200191610486565b820191906000526020600020905b81548152906001019060200180831161046957829003601f168201915b5050505050905090565b600061049b82610fcb565b6104da576040517f08c379a00000000000000000000000000000000000000000000000000000000081526004016104d1906127bb565b60405180910390fd5b6004600083815260200190815260200160002060009054906101000a900473ffffffffffffffffffffffffffffffffffffffff169050919050565b6000610520826106ad565b90508073ffffffffffffffffffffffffffffffffffffffff168373ffffffffffffffffffffffffffffffffffffffff161415610591576040517f08c379a00000000000000000000000000000000000000000000000000000000081526004016105889061281b565b60405180910390fd5b8073ffffffffffffffffffffffffffffffffffffffff166105b0611037565b73ffffffffffffffffffffffffffffffffffffffff1614806105df57506105de816105d9611037565b610ecd565b5b61061e576040517f08c379a0000000000000000000000000000000000000000000000000000000008152600401610615906126fb565b60405180910390fd5b610628838361103f565b505050565b61063e610638611037565b826110f8565b61067d576040517f08c379a00000000000000000000000000000000000000000000000000000000081526004016106749061283b565b60405180910390fd5b6106888383836111d6565b505050565b6106a883838360405180602001604052806000815250610c00565b505050565b6000806002600084815260200190815260200160002060009054906101000a900473ffffffffffffffffffffffffffffffffffffffff169050600073ffffffffffffffffffffffffffffffffffffffff168173ffffffffffffffffffffffffffffffffffffffff161415610756576040517f08c379a000000000000000000000000000000000000000000000000000000000815260040161074d9061273b565b60405180910390fd5b80915050919050565b60008073ffffffffffffffffffffffffffffffffffffffff168273ffffffffffffffffffffffffffffffffffffffff1614156107d0576040517f08c379a00000000000000000000000000000000000000000000000000000000081526004016107c79061271b565b60405180910390fd5b600360008373ffffffffffffffffffffffffffffffffffffffff1673ffffffffffffffffffffffffffffffffffffffff168152602001908152602001600020549050919050565b606060006108256007611432565b905060008060005b838110156108ce573373ffffffffffffffffffffffffffffffffffffffff166009600060018461085d919061298a565b815260200190815260200160002060000160009054906101000a900473ffffffffffffffffffffffffffffffffffffffff1673ffffffffffffffffffffffffffffffffffffffff1614156108bb576001836108b8919061298a565b92505b80806108c690612b5e565b91505061082d565b5060008267ffffffffffffffff811115610911577f4e487b7100000000000000000000000000000000000000000000000000000000600052604160045260246000fd5b60405190808252806020026020018201604052801561094a57816020015b610937611cf4565b81526020019060019003908161092f5790505b50905060005b84811015610b4d573373ffffffffffffffffffffffffffffffffffffffff1660096000600184610980919061298a565b815260200190815260200160002060000160009054906101000a900473ffffffffffffffffffffffffffffffffffffffff1673ffffffffffffffffffffffffffffffffffffffff161415610b3a576000600960006001846109e1919061298a565b81526020019081526020016000206040518060400160405290816000820160009054906101000a900473ffffffffffffffffffffffffffffffffffffffff1673ffffffffffffffffffffffffffffffffffffffff1673ffffffffffffffffffffffffffffffffffffffff168152602001600182018054610a6090612afb565b80601f0160208091040260200160405190810160405280929190818152602001828054610a8c90612afb565b8015610ad95780601f10610aae57610100808354040283529160200191610ad9565b820191906000526020600020905b815481529060010190602001808311610abc57829003601f168201915b505050505081525050905080838581518110610b1e577f4e487b7100000000000000000000000000000000000000000000000000000000600052603260045260246000fd5b6020026020010181905250600184610b36919061298a565b9350505b8080610b4590612b5e565b915050610950565b508094505050505090565b606060018054610b6790612afb565b80601f0160208091040260200160405190810160405280929190818152602001828054610b9390612afb565b8015610be05780601f10610bb557610100808354040283529160200191610be0565b820191906000526020600020905b815481529060010190602001808311610bc357829003601f168201915b5050505050905090565b610bfc610bf5611037565b8383611440565b5050565b610c11610c0b611037565b836110f8565b610c50576040517f08c379a0000000000000000000000000000000000000000000000000000000008152600401610c479061283b565b60405180910390fd5b610c5c848484846115ad565b50505050565b6060610c6d82610fcb565b610cac576040517f08c379a0000000000000000000000000000000000000000000000000000000008152600401610ca39061279b565b60405180910390fd5b6000600660008481526020019081526020016000208054610ccc90612afb565b80601f0160208091040260200160405190810160405280929190818152602001828054610cf890612afb565b8015610d455780601f10610d1a57610100808354040283529160200191610d45565b820191906000526020600020905b815481529060010190602001808311610d2857829003601f168201915b505050505090506000610d56611609565b9050600081511415610d6c578192505050610daf565b600082511115610da1578082604051602001610d89929190612571565b60405160208183030381529060405292505050610daf565b610daa84611620565b925050505b919050565b610dbe60076116c7565b6000610dca6007611432565b9050610dd633826116dd565b610de081836116fb565b60405180604001604052803373ffffffffffffffffffffffffffffffffffffffff168152602001838152506009600083815260200190815260200160002060008201518160000160006101000a81548173ffffffffffffffffffffffffffffffffffffffff021916908373ffffffffffffffffffffffffffffffffffffffff1602179055506020820151816001019080519060200190610e81929190611d24565b50905050803373ffffffffffffffffffffffffffffffffffffffff167f1cef2b4ec7f129e441c961eb4fae22fd3131868db6be990c6f065f35b6b53cf360405160405180910390a35050565b6000600560008473ffffffffffffffffffffffffffffffffffffffff1673ffffffffffffffffffffffffffffffffffffffff16815260200190815260200160002060008373ffffffffffffffffffffffffffffffffffffffff1673ffffffffffffffffffffffffffffffffffffffff16815260200190815260200160002060009054906101000a900460ff16905092915050565b60007f01ffc9a7000000000000000000000000000000000000000000000000000000007bffffffffffffffffffffffffffffffffffffffffffffffffffffffff1916827bffffffffffffffffffffffffffffffffffffffffffffffffffffffff1916149050919050565b60008073ffffffffffffffffffffffffffffffffffffffff166002600084815260200190815260200160002060009054906101000a900473ffffffffffffffffffffffffffffffffffffffff1673ffffffffffffffffffffffffffffffffffffffff1614159050919050565b600033905090565b816004600083815260200190815260200160002060006101000a81548173ffffffffffffffffffffffffffffffffffffffff021916908373ffffffffffffffffffffffffffffffffffffffff160217905550808273ffffffffffffffffffffffffffffffffffffffff166110b2836106ad565b73ffffffffffffffffffffffffffffffffffffffff167f8c5be1e5ebec7d5bd14f71427d1e84f3dd0314c0f7b2291e5b200ac8c7c3b92560405160405180910390a45050565b600061110382610fcb565b611142576040517f08c379a0000000000000000000000000000000000000000000000000000000008152600401611139906126db565b60405180910390fd5b600061114d836106ad565b90508073ffffffffffffffffffffffffffffffffffffffff168473ffffffffffffffffffffffffffffffffffffffff1614806111bc57508373ffffffffffffffffffffffffffffffffffffffff166111a484610490565b73ffffffffffffffffffffffffffffffffffffffff16145b806111cd57506111cc8185610ecd565b5b91505092915050565b8273ffffffffffffffffffffffffffffffffffffffff166111f6826106ad565b73ffffffffffffffffffffffffffffffffffffffff161461124c576040517f08c379a0000000000000000000000000000000000000000000000000000000008152600401611243906127db565b60405180910390fd5b600073ffffffffffffffffffffffffffffffffffffffff168273ffffffffffffffffffffffffffffffffffffffff1614156112bc576040517f08c379a00000000000000000000000000000000000000000000000000000000081526004016112b39061269b565b60405180910390fd5b6112c783838361176f565b6112d260008261103f565b6001600360008573ffffffffffffffffffffffffffffffffffffffff1673ffffffffffffffffffffffffffffffffffffffff16815260200190815260200160002060008282546113229190612a11565b925050819055506001600360008473ffffffffffffffffffffffffffffffffffffffff1673ffffffffffffffffffffffffffffffffffffffff1681526020019081526020016000206000828254611379919061298a565b92505081905550816002600083815260200190815260200160002060006101000a81548173ffffffffffffffffffffffffffffffffffffffff021916908373ffffffffffffffffffffffffffffffffffffffff160217905550808273ffffffffffffffffffffffffffffffffffffffff168473ffffffffffffffffffffffffffffffffffffffff167fddf252ad1be2c89b69c2b068fc378daa952ba7f163c4a11628f55a4df523b3ef60405160405180910390a4505050565b600081600001549050919050565b8173ffffffffffffffffffffffffffffffffffffffff168373ffffffffffffffffffffffffffffffffffffffff1614156114af576040517f08c379a00000000000000000000000000000000000000000000000000000000081526004016114a6906126bb565b60405180910390fd5b80600560008573ffffffffffffffffffffffffffffffffffffffff1673ffffffffffffffffffffffffffffffffffffffff16815260200190815260200160002060008473ffffffffffffffffffffffffffffffffffffffff1673ffffffffffffffffffffffffffffffffffffffff16815260200190815260200160002060006101000a81548160ff0219169083151502179055508173ffffffffffffffffffffffffffffffffffffffff168373ffffffffffffffffffffffffffffffffffffffff167f17307eab39ab6107e8899845ad3d59bd9653f200f220920489ca2b5937696c31836040516115a0919061261e565b60405180910390a3505050565b6115b88484846111d6565b6115c484848484611774565b611603576040517f08c379a00000000000000000000000000000000000000000000000000000000081526004016115fa9061265b565b60405180910390fd5b50505050565b606060405180602001604052806000815250905090565b606061162b82610fcb565b61166a576040517f08c379a0000000000000000000000000000000000000000000000000000000008152600401611661906127fb565b60405180910390fd5b6000611674611609565b9050600081511161169457604051806020016040528060008152506116bf565b8061169e8461190b565b6040516020016116af929190612571565b6040516020818303038152906040525b915050919050565b6001816000016000828254019250508190555050565b6116f7828260405180602001604052806000815250611ab8565b5050565b61170482610fcb565b611743576040517f08c379a000000000000000000000000000000000000000000000000000000000815260040161173a9061275b565b60405180910390fd5b8060066000848152602001908152602001600020908051906020019061176a929190611d24565b505050565b505050565b60006117958473ffffffffffffffffffffffffffffffffffffffff16611b13565b156118fe578373ffffffffffffffffffffffffffffffffffffffff1663150b7a026117be611037565b8786866040518563ffffffff1660e01b81526004016117e094939291906125b0565b602060405180830381600087803b1580156117fa57600080fd5b505af192505050801561182b57506040513d601f19601f8201168201806040525081019061182891906120d0565b60015b6118ae573d806000811461185b576040519150601f19603f3d011682016040523d82523d6000602084013e611860565b606091505b506000815114156118a6576040517f08c379a000000000000000000000000000000000000000000000000000000000815260040161189d9061265b565b60405180910390fd5b805181602001fd5b63150b7a0260e01b7bffffffffffffffffffffffffffffffffffffffffffffffffffffffff1916817bffffffffffffffffffffffffffffffffffffffffffffffffffffffff191614915050611903565b600190505b949350505050565b60606000821415611953576040518060400160405280600181526020017f30000000000000000000000000000000000000000000000000000000000000008152509050611ab3565b600082905060005b6000821461198557808061196e90612b5e565b915050600a8261197e91906129e0565b915061195b565b60008167ffffffffffffffff8111156119c7577f4e487b7100000000000000000000000000000000000000000000000000000000600052604160045260246000fd5b6040519080825280601f01601f1916602001820160405280156119f95781602001600182028036833780820191505090505b5090505b60008514611aac57600182611a129190612a11565b9150600a85611a219190612ba7565b6030611a2d919061298a565b60f81b818381518110611a69577f4e487b7100000000000000000000000000000000000000000000000000000000600052603260045260246000fd5b60200101907effffffffffffffffffffffffffffffffffffffffffffffffffffffffffffff1916908160001a905350600a85611aa591906129e0565b94506119fd565b8093505050505b919050565b611ac28383611b26565b611acf6000848484611774565b611b0e576040517f08c379a0000000000000000000000000000000000000000000000000000000008152600401611b059061265b565b60405180910390fd5b505050565b600080823b905060008111915050919050565b600073ffffffffffffffffffffffffffffffffffffffff168273ffffffffffffffffffffffffffffffffffffffff161415611b96576040517f08c379a0000000000000000000000000000000000000000000000000000000008152600401611b8d9061277b565b60405180910390fd5b611b9f81610fcb565b15611bdf576040517f08c379a0000000000000000000000000000000000000000000000000000000008152600401611bd69061267b565b60405180910390fd5b611beb6000838361176f565b6001600360008473ffffffffffffffffffffffffffffffffffffffff1673ffffffffffffffffffffffffffffffffffffffff1681526020019081526020016000206000828254611c3b919061298a565b92505081905550816002600083815260200190815260200160002060006101000a81548173ffffffffffffffffffffffffffffffffffffffff021916908373ffffffffffffffffffffffffffffffffffffffff160217905550808273ffffffffffffffffffffffffffffffffffffffff16600073ffffffffffffffffffffffffffffffffffffffff167fddf252ad1be2c89b69c2b068fc378daa952ba7f163c4a11628f55a4df523b3ef60405160405180910390a45050565b6040518060400160405280600073ffffffffffffffffffffffffffffffffffffffff168152602001606081525090565b828054611d3090612afb565b90600052602060002090601f016020900481019282611d525760008555611d99565b82601f10611d6b57805160ff1916838001178555611d99565b82800160010185558215611d99579182015b82811115611d98578251825591602001919060010190611d7d565b5b509050611da69190611daa565b5090565b5b80821115611dc3576000816000905550600101611dab565b5090565b6000611dda611dd58461289b565b612876565b905082815260208101848484011115611df257600080fd5b611dfd848285612ab9565b509392505050565b6000611e18611e13846128cc565b612876565b905082815260208101848484011115611e3057600080fd5b611e3b848285612ab9565b509392505050565b600081359050611e5281613123565b92915050565b600081359050611e678161313a565b92915050565b600081359050611e7c81613151565b92915050565b600081519050611e9181613151565b92915050565b600082601f830112611ea857600080fd5b8135611eb8848260208601611dc7565b91505092915050565b600082601f830112611ed257600080fd5b8135611ee2848260208601611e05565b91505092915050565b600081359050611efa81613168565b92915050565b600060208284031215611f1257600080fd5b6000611f2084828501611e43565b91505092915050565b60008060408385031215611f3c57600080fd5b6000611f4a85828601611e43565b9250506020611f5b85828601611e43565b9150509250929050565b600080600060608486031215611f7a57600080fd5b6000611f8886828701611e43565b9350506020611f9986828701611e43565b9250506040611faa86828701611eeb565b9150509250925092565b60008060008060808587031215611fca57600080fd5b6000611fd887828801611e43565b9450506020611fe987828801611e43565b9350506040611ffa87828801611eeb565b925050606085013567ffffffffffffffff81111561201757600080fd5b61202387828801611e97565b91505092959194509250565b6000806040838503121561204257600080fd5b600061205085828601611e43565b925050602061206185828601611e58565b9150509250929050565b6000806040838503121561207e57600080fd5b600061208c85828601611e43565b925050602061209d85828601611eeb565b9150509250929050565b6000602082840312156120b957600080fd5b60006120c784828501611e6d565b91505092915050565b6000602082840312156120e257600080fd5b60006120f084828501611e82565b91505092915050565b60006020828403121561210b57600080fd5b600082013567ffffffffffffffff81111561212557600080fd5b61213184828501611ec1565b91505092915050565b60006020828403121561214c57600080fd5b600061215a84828501611eeb565b91505092915050565b600061216f8383612525565b905092915050565b61218081612a45565b82525050565b61218f81612a45565b82525050565b60006121a08261290d565b6121aa818561293b565b9350836020820285016121bc856128fd565b8060005b858110156121f857848403895281516121d98582612163565b94506121e48361292e565b925060208a019950506001810190506121c0565b50829750879550505050505092915050565b61221381612a57565b82525050565b600061222482612918565b61222e818561294c565b935061223e818560208601612ac8565b61224781612c94565b840191505092915050565b600061225d82612923565b612267818561295d565b9350612277818560208601612ac8565b61228081612c94565b840191505092915050565b600061229682612923565b6122a0818561296e565b93506122b0818560208601612ac8565b6122b981612c94565b840191505092915050565b60006122cf82612923565b6122d9818561297f565b93506122e9818560208601612ac8565b80840191505092915050565b600061230260328361296e565b915061230d82612ca5565b604082019050919050565b6000612325601c8361296e565b915061233082612cf4565b602082019050919050565b600061234860248361296e565b915061235382612d1d565b604082019050919050565b600061236b60198361296e565b915061237682612d6c565b602082019050919050565b600061238e602c8361296e565b915061239982612d95565b604082019050919050565b60006123b160388361296e565b91506123bc82612de4565b604082019050919050565b60006123d4602a8361296e565b91506123df82612e33565b604082019050919050565b60006123f760298361296e565b915061240282612e82565b604082019050919050565b600061241a602e8361296e565b915061242582612ed1565b604082019050919050565b600061243d60208361296e565b915061244882612f20565b602082019050919050565b600061246060318361296e565b915061246b82612f49565b604082019050919050565b6000612483602c8361296e565b915061248e82612f98565b604082019050919050565b60006124a660298361296e565b91506124b182612fe7565b604082019050919050565b60006124c9602f8361296e565b91506124d482613036565b604082019050919050565b60006124ec60218361296e565b91506124f782613085565b604082019050919050565b600061250f60318361296e565b915061251a826130d4565b604082019050919050565b600060408301600083015161253d6000860182612177565b50602083015184820360208601526125558282612252565b9150508091505092915050565b61256b81612aaf565b82525050565b600061257d82856122c4565b915061258982846122c4565b91508190509392505050565b60006020820190506125aa6000830184612186565b92915050565b60006080820190506125c56000830187612186565b6125d26020830186612186565b6125df6040830185612562565b81810360608301526125f18184612219565b905095945050505050565b600060208201905081810360008301526126168184612195565b905092915050565b6000602082019050612633600083018461220a565b92915050565b60006020820190508181036000830152612653818461228b565b905092915050565b60006020820190508181036000830152612674816122f5565b9050919050565b6000602082019050818103600083015261269481612318565b9050919050565b600060208201905081810360008301526126b48161233b565b9050919050565b600060208201905081810360008301526126d48161235e565b9050919050565b600060208201905081810360008301526126f481612381565b9050919050565b60006020820190508181036000830152612714816123a4565b9050919050565b60006020820190508181036000830152612734816123c7565b9050919050565b60006020820190508181036000830152612754816123ea565b9050919050565b600060208201905081810360008301526127748161240d565b9050919050565b6000602082019050818103600083015261279481612430565b9050919050565b600060208201905081810360008301526127b481612453565b9050919050565b600060208201905081810360008301526127d481612476565b9050919050565b600060208201905081810360008301526127f481612499565b9050919050565b60006020820190508181036000830152612814816124bc565b9050919050565b60006020820190508181036000830152612834816124df565b9050919050565b6000602082019050818103600083015261285481612502565b9050919050565b60006020820190506128706000830184612562565b92915050565b6000612880612891565b905061288c8282612b2d565b919050565b6000604051905090565b600067ffffffffffffffff8211156128b6576128b5612c65565b5b6128bf82612c94565b9050602081019050919050565b600067ffffffffffffffff8211156128e7576128e6612c65565b5b6128f082612c94565b9050602081019050919050565b6000819050602082019050919050565b600081519050919050565b600081519050919050565b600081519050919050565b6000602082019050919050565b600082825260208201905092915050565b600082825260208201905092915050565b600082825260208201905092915050565b600082825260208201905092915050565b600081905092915050565b600061299582612aaf565b91506129a083612aaf565b9250827fffffffffffffffffffffffffffffffffffffffffffffffffffffffffffffffff038211156129d5576129d4612bd8565b5b828201905092915050565b60006129eb82612aaf565b91506129f683612aaf565b925082612a0657612a05612c07565b5b828204905092915050565b6000612a1c82612aaf565b9150612a2783612aaf565b925082821015612a3a57612a39612bd8565b5b828203905092915050565b6000612a5082612a8f565b9050919050565b60008115159050919050565b60007fffffffff0000000000000000000000000000000000000000000000000000000082169050919050565b600073ffffffffffffffffffffffffffffffffffffffff82169050919050565b6000819050919050565b82818337600083830152505050565b60005b83811015612ae6578082015181840152602081019050612acb565b83811115612af5576000848401525b50505050565b60006002820490506001821680612b1357607f821691505b60208210811415612b2757612b26612c36565b5b50919050565b612b3682612c94565b810181811067ffffffffffffffff82111715612b5557612b54612c65565b5b80604052505050565b6000612b6982612aaf565b91507fffffffffffffffffffffffffffffffffffffffffffffffffffffffffffffffff821415612b9c57612b9b612bd8565b5b600182019050919050565b6000612bb282612aaf565b9150612bbd83612aaf565b925082612bcd57612bcc612c07565b5b828206905092915050565b7f4e487b7100000000000000000000000000000000000000000000000000000000600052601160045260246000fd5b7f4e487b7100000000000000000000000000000000000000000000000000000000600052601260045260246000fd5b7f4e487b7100000000000000000000000000000000000000000000000000000000600052602260045260246000fd5b7f4e487b7100000000000000000000000000000000000000000000000000000000600052604160045260246000fd5b6000601f19601f8301169050919050565b7f4552433732313a207472616e7366657220746f206e6f6e20455243373231526560008201527f63656976657220696d706c656d656e7465720000000000000000000000000000602082015250565b7f4552433732313a20746f6b656e20616c7265616479206d696e74656400000000600082015250565b7f4552433732313a207472616e7366657220746f20746865207a65726f2061646460008201527f7265737300000000000000000000000000000000000000000000000000000000602082015250565b7f4552433732313a20617070726f766520746f2063616c6c657200000000000000600082015250565b7f4552433732313a206f70657261746f7220717565727920666f72206e6f6e657860008201527f697374656e7420746f6b656e0000000000000000000000000000000000000000602082015250565b7f4552433732313a20617070726f76652063616c6c6572206973206e6f74206f7760008201527f6e6572206e6f7220617070726f76656420666f7220616c6c0000000000000000602082015250565b7f4552433732313a2062616c616e636520717565727920666f7220746865207a6560008201527f726f206164647265737300000000000000000000000000000000000000000000602082015250565b7f4552433732313a206f776e657220717565727920666f72206e6f6e657869737460008201527f656e7420746f6b656e0000000000000000000000000000000000000000000000602082015250565b7f45524337323155524953746f726167653a2055524920736574206f66206e6f6e60008201527f6578697374656e7420746f6b656e000000000000000000000000000000000000602082015250565b7f4552433732313a206d696e7420746f20746865207a65726f2061646472657373600082015250565b7f45524337323155524953746f726167653a2055524920717565727920666f722060008201527f6e6f6e6578697374656e7420746f6b656e000000000000000000000000000000602082015250565b7f4552433732313a20617070726f76656420717565727920666f72206e6f6e657860008201527f697374656e7420746f6b656e0000000000000000000000000000000000000000602082015250565b7f4552433732313a207472616e73666572206f6620746f6b656e2074686174206960008201527f73206e6f74206f776e0000000000000000000000000000000000000000000000602082015250565b7f4552433732314d657461646174613a2055524920717565727920666f72206e6f60008201527f6e6578697374656e7420746f6b656e0000000000000000000000000000000000602082015250565b7f4552433732313a20617070726f76616c20746f2063757272656e74206f776e6560008201527f7200000000000000000000000000000000000000000000000000000000000000602082015250565b7f4552433732313a207472616e736665722063616c6c6572206973206e6f74206f60008201527f776e6572206e6f7220617070726f766564000000000000000000000000000000602082015250565b61312c81612a45565b811461313757600080fd5b50565b61314381612a57565b811461314e57600080fd5b50565b61315a81612a63565b811461316557600080fd5b50565b61317181612aaf565b811461317c57600080fd5b5056fea2646970667358221220bf8e5bd26ddda1738a94e824632a6ea721ddc1ed6387bc2231afecfd9e98d72464736f6c63430008040033",
  "linkReferences": {},
  "deployedLinkReferences": {}
}